{
  "_format": "hh-sol-artifact-1",
  "contractName": "HumanityRegistry",
  "sourceName": "contracts/HumanityRegistry.sol",
  "abi": [
    {
      "inputs": [
        {
          "internalType": "address",
          "name": "_nftAddress",
          "type": "address"
        }
      ],
      "stateMutability": "nonpayable",
      "type": "constructor"
    },
    {
      "inputs": [
        {
          "internalType": "address",
          "name": "user",
          "type": "address"
        }
      ],
      "name": "getBioHash",
      "outputs": [
        {
          "internalType": "bytes32",
          "name": "",
          "type": "bytes32"
        }
      ],
      "stateMutability": "view",
      "type": "function"
    },
    {
      "inputs": [
        {
          "internalType": "address",
          "name": "",
          "type": "address"
        }
      ],
      "name": "humanBioHashes",
      "outputs": [
        {
          "internalType": "bytes32",
          "name": "",
          "type": "bytes32"
        }
      ],
      "stateMutability": "view",
      "type": "function"
    },
    {
      "inputs": [],
      "name": "humanityNFT",
      "outputs": [
        {
          "internalType": "contract HumanityNFT",
          "name": "",
          "type": "address"
        }
      ],
      "stateMutability": "view",
      "type": "function"
    },
    {
      "inputs": [
        {
          "internalType": "address",
          "name": "user",
          "type": "address"
        }
      ],
      "name": "isRegistered",
      "outputs": [
        {
          "internalType": "bool",
          "name": "",
          "type": "bool"
        }
      ],
      "stateMutability": "view",
      "type": "function"
    },
    {
      "inputs": [
        {
          "internalType": "bytes32",
          "name": "bioHash",
          "type": "bytes32"
        }
      ],
      "name": "registerHumanity",
      "outputs": [],
      "stateMutability": "nonpayable",
      "type": "function"
    },
    {
      "inputs": [
        {
          "internalType": "bytes32",
          "name": "",
          "type": "bytes32"
        }
      ],
      "name": "registeredHashes",
      "outputs": [
        {
          "internalType": "bool",
          "name": "",
          "type": "bool"
        }
      ],
      "stateMutability": "view",
      "type": "function"
    }
  ],
  "bytecode": "0x608060405234801561001057600080fd5b50604051610875380380610875833981810160405281019061003291906100db565b806000806101000a81548173ffffffffffffffffffffffffffffffffffffffff021916908373ffffffffffffffffffffffffffffffffffffffff16021790555050610108565b600080fd5b600073ffffffffffffffffffffffffffffffffffffffff82169050919050565b60006100a88261007d565b9050919050565b6100b88161009d565b81146100c357600080fd5b50565b6000815190506100d5816100af565b92915050565b6000602082840312156100f1576100f0610078565b5b60006100ff848285016100c6565b91505092915050565b61075e806101176000396000f3fe608060405234801561001057600080fd5b50600436106100625760003560e01c80631a834434146100675780633a260ad914610083578063513b5814146100a1578063c3c5a547146100d1578063e9fdbf6014610101578063ff2e380b14610131575b600080fd5b610081600480360381019061007c9190610475565b610161565b005b61008b610346565b6040516100989190610521565b60405180910390f35b6100bb60048036038101906100b69190610475565b61036a565b6040516100c89190610557565b60405180910390f35b6100eb60048036038101906100e691906105b0565b61038a565b6040516100f89190610557565b60405180910390f35b61011b600480360381019061011691906105b0565b6103d9565b60405161012891906105ec565b60405180910390f35b61014b600480360381019061014691906105b0565b6103f1565b60405161015891906105ec565b60405180910390f35b6000801b600160003373ffffffffffffffffffffffffffffffffffffffff1673ffffffffffffffffffffffffffffffffffffffff16815260200190815260200160002054146101e5576040517f08c379a00000000000000000000000000000000000000000000000000000000081526004016101dc90610664565b60405180910390fd5b6002600082815260200190815260200160002060009054906101000a900460ff1615610246576040517f08c379a000000000000000000000000000000000000000000000000000000000815260040161023d906106d0565b60405180910390fd5b80600160003373ffffffffffffffffffffffffffffffffffffffff1673ffffffffffffffffffffffffffffffffffffffff1681526020019081526020016000208190555060016002600083815260200190815260200160002060006101000a81548160ff02191690831515021790555060008054906101000a900473ffffffffffffffffffffffffffffffffffffffff1673ffffffffffffffffffffffffffffffffffffffff16632cfd300533836040518363ffffffff1660e01b81526004016103119291906106ff565b600060405180830381600087803b15801561032b57600080fd5b505af115801561033f573d6000803e3d6000fd5b5050505050565b60008054906101000a900473ffffffffffffffffffffffffffffffffffffffff1681565b60026020528060005260406000206000915054906101000a900460ff1681565b60008060001b600160008473ffffffffffffffffffffffffffffffffffffffff1673ffffffffffffffffffffffffffffffffffffffff1681526020019081526020016000205414159050919050565b60016020528060005260406000206000915090505481565b6000600160008373ffffffffffffffffffffffffffffffffffffffff1673ffffffffffffffffffffffffffffffffffffffff168152602001908152602001600020549050919050565b600080fd5b6000819050919050565b6104528161043f565b811461045d57600080fd5b50565b60008135905061046f81610449565b92915050565b60006020828403121561048b5761048a61043a565b5b600061049984828501610460565b91505092915050565b600073ffffffffffffffffffffffffffffffffffffffff82169050919050565b6000819050919050565b60006104e76104e26104dd846104a2565b6104c2565b6104a2565b9050919050565b60006104f9826104cc565b9050919050565b600061050b826104ee565b9050919050565b61051b81610500565b82525050565b60006020820190506105366000830184610512565b92915050565b60008115159050919050565b6105518161053c565b82525050565b600060208201905061056c6000830184610548565b92915050565b600061057d826104a2565b9050919050565b61058d81610572565b811461059857600080fd5b50565b6000813590506105aa81610584565b92915050565b6000602082840312156105c6576105c561043a565b5b60006105d48482850161059b565b91505092915050565b6105e68161043f565b82525050565b600060208201905061060160008301846105dd565b92915050565b600082825260208201905092915050565b7f416c726561647920726567697374657265640000000000000000000000000000600082015250565b600061064e601283610607565b915061065982610618565b602082019050919050565b6000602082019050818103600083015261067d81610641565b9050919050565b7f42696f4861736820616c72656164792075736564000000000000000000000000600082015250565b60006106ba601483610607565b91506106c582610684565b602082019050919050565b600060208201905081810360008301526106e9816106ad565b9050919050565b6106f981610572565b82525050565b600060408201905061071460008301856106f0565b61072160208301846105dd565b939250505056fea26469706673582212201cddbe25b9e51556bf9ee62dfa1ea997a569afb272ae0c790797fd2000a2265464736f6c63430008140033",
  "linkReferences": {},
  "deployedLinkReferences": {}
}