{
  "_format": "hh-sol-artifact-1",
  "contractName": "BiometricOracle",
  "sourceName": "contracts/BiometricOracle.sol",
  "abi": [
    {
      "inputs": [
        {
          "internalType": "address",
          "name": "user",
          "type": "address"
        }
      ],
      "name": "getBiometricHash",
      "outputs": [
        {
          "internalType": "bytes32",
          "name": "",
          "type": "bytes32"
        }
      ],
      "stateMutability": "view",
      "type": "function"
    },
    {
      "inputs": [
        {
          "internalType": "address",
          "name": "",
          "type": "address"
        }
      ],
      "name": "latestHashes",
      "outputs": [
        {
          "internalType": "bytes32",
          "name": "",
          "type": "bytes32"
        }
      ],
      "stateMutability": "view",
      "type": "function"
    },
    {
      "inputs": [
        {
          "internalType": "bytes32",
          "name": "bioHash",
          "type": "bytes32"
        }
      ],
      "name": "submitBiometricHash",
      "outputs": [],
      "stateMutability": "nonpayable",
      "type": "function"
    }
  ],
  "bytecode": "0x608060405234801561001057600080fd5b506102bb806100206000396000f3fe608060405234801561001057600080fd5b50600436106100415760003560e01c8063654ac6ca14610046578063680a138b146100765780637fc57620146100a6575b600080fd5b610060600480360381019061005b91906101cb565b6100c2565b60405161006d9190610211565b60405180910390f35b610090600480360381019061008b91906101cb565b6100da565b60405161009d9190610211565b60405180910390f35b6100c060048036038101906100bb9190610258565b610122565b005b60006020528060005260406000206000915090505481565b60008060008373ffffffffffffffffffffffffffffffffffffffff1673ffffffffffffffffffffffffffffffffffffffff168152602001908152602001600020549050919050565b806000803373ffffffffffffffffffffffffffffffffffffffff1673ffffffffffffffffffffffffffffffffffffffff1681526020019081526020016000208190555050565b600080fd5b600073ffffffffffffffffffffffffffffffffffffffff82169050919050565b60006101988261016d565b9050919050565b6101a88161018d565b81146101b357600080fd5b50565b6000813590506101c58161019f565b92915050565b6000602082840312156101e1576101e0610168565b5b60006101ef848285016101b6565b91505092915050565b6000819050919050565b61020b816101f8565b82525050565b60006020820190506102266000830184610202565b92915050565b610235816101f8565b811461024057600080fd5b50565b6000813590506102528161022c565b92915050565b60006020828403121561026e5761026d610168565b5b600061027c84828501610243565b9150509291505056fea2646970667358221220152acb3b467eabfeaa0c563fac54c3b8784e518b8609f07b909f77f63518b32e64736f6c63430008140033",
  "linkReferences": {},
  "deployedLinkReferences": {}
}