{
  "_format": "hh-sol-artifact-1",
  "contractName": "SybilResistantDAO",
  "sourceName": "contracts/SybilResistantDAO.sol",
  "abi": [
    {
      "inputs": [
        {
          "internalType": "address",
          "name": "_nftAddress",
          "type": "address"
        }
      ],
      "stateMutability": "nonpayable",
      "type": "constructor"
    },
    {
      "anonymous": false,
      "inputs": [
        {
          "indexed": false,
          "internalType": "uint256",
          "name": "proposalId",
          "type": "uint256"
        }
      ],
      "name": "ProposalCreated",
      "type": "event"
    },
    {
      "inputs": [],
      "name": "createProposal",
      "outputs": [],
      "stateMutability": "nonpayable",
      "type": "function"
    },
    {
      "inputs": [
        {
          "internalType": "uint256",
          "name": "proposalId",
          "type": "uint256"
        }
      ],
      "name": "getVotes",
      "outputs": [
        {
          "internalType": "uint256",
          "name": "",
          "type": "uint256"
        }
      ],
      "stateMutability": "view",
      "type": "function"
    },
    {
      "inputs": [
        {
          "internalType": "uint256",
          "name": "proposalId",
          "type": "uint256"
        },
        {
          "internalType": "address",
          "name": "user",
          "type": "address"
        }
      ],
      "name": "hasUserVoted",
      "outputs": [
        {
          "internalType": "bool",
          "name": "",
          "type": "bool"
        }
      ],
      "stateMutability": "view",
      "type": "function"
    },
    {
      "inputs": [
        {
          "internalType": "uint256",
          "name": "",
          "type": "uint256"
        },
        {
          "internalType": "address",
          "name": "",
          "type": "address"
        }
      ],
      "name": "hasVoted",
      "outputs": [
        {
          "internalType": "bool",
          "name": "",
          "type": "bool"
        }
      ],
      "stateMutability": "view",
      "type": "function"
    },
    {
      "inputs": [],
      "name": "humanityNFT",
      "outputs": [
        {
          "internalType": "contract HumanityNFT",
          "name": "",
          "type": "address"
        }
      ],
      "stateMutability": "view",
      "type": "function"
    },
    {
      "inputs": [],
      "name": "proposalCount",
      "outputs": [
        {
          "internalType": "uint256",
          "name": "",
          "type": "uint256"
        }
      ],
      "stateMutability": "view",
      "type": "function"
    },
    {
      "inputs": [
        {
          "internalType": "uint256",
          "name": "proposalId",
          "type": "uint256"
        }
      ],
      "name": "vote",
      "outputs": [],
      "stateMutability": "nonpayable",
      "type": "function"
    },
    {
      "inputs": [
        {
          "internalType": "uint256",
          "name": "",
          "type": "uint256"
        }
      ],
      "name": "votes",
      "outputs": [
        {
          "internalType": "uint256",
          "name": "",
          "type": "uint256"
        }
      ],
      "stateMutability": "view",
      "type": "function"
    }
  ],
  "bytecode": "0x608060405234801561001057600080fd5b50604051610af4380380610af4833981810160405281019061003291906100db565b806000806101000a81548173ffffffffffffffffffffffffffffffffffffffff021916908373ffffffffffffffffffffffffffffffffffffffff16021790555050610108565b600080fd5b600073ffffffffffffffffffffffffffffffffffffffff82169050919050565b60006100a88261007d565b9050919050565b6100b88161009d565b81146100c357600080fd5b50565b6000815190506100d5816100af565b92915050565b6000602082840312156100f1576100f0610078565b5b60006100ff848285016100c6565b91505092915050565b6109dd806101176000396000f3fe608060405234801561001057600080fd5b50600436106100885760003560e01c80635df813301161005b5780635df8133014610101578063da35c66414610131578063dc296ae11461014f578063ff9810991461017f57610088565b80630121b93f1461008d578063180fd87f146100a95780633a260ad9146100b357806343859632146100d1575b600080fd5b6100a760048036038101906100a29190610596565b6101af565b005b6100b1610412565b005b6100bb610465565b6040516100c89190610642565b60405180910390f35b6100eb60048036038101906100e6919061069b565b610489565b6040516100f891906106f6565b60405180910390f35b61011b60048036038101906101169190610596565b6104b8565b6040516101289190610720565b60405180910390f35b6101396104d0565b6040516101469190610720565b60405180910390f35b6101696004803603810190610164919061069b565b6104d6565b60405161017691906106f6565b60405180910390f35b61019960048036038101906101949190610596565b61053e565b6040516101a69190610720565b60405180910390f35b6000811180156101c157506001548111155b610200576040517f08c379a00000000000000000000000000000000000000000000000000000000081526004016101f790610798565b60405180910390fd5b60008060009054906101000a900473ffffffffffffffffffffffffffffffffffffffff1673ffffffffffffffffffffffffffffffffffffffff166370a08231336040518263ffffffff1660e01b815260040161025c91906107c7565b602060405180830381865afa158015610279573d6000803e3d6000fd5b505050506040513d601f19601f8201168201806040525081019061029d91906107f7565b116102dd576040517f08c379a00000000000000000000000000000000000000000000000000000000081526004016102d490610870565b60405180910390fd5b6003600082815260200190815260200160002060003373ffffffffffffffffffffffffffffffffffffffff1673ffffffffffffffffffffffffffffffffffffffff16815260200190815260200160002060009054906101000a900460ff161561037b576040517f08c379a0000000000000000000000000000000000000000000000000000000008152600401610372906108dc565b60405180910390fd5b60016003600083815260200190815260200160002060003373ffffffffffffffffffffffffffffffffffffffff1673ffffffffffffffffffffffffffffffffffffffff16815260200190815260200160002060006101000a81548160ff0219169083151502179055506001600260008381526020019081526020016000206000828254610408919061092b565b9250508190555050565b600160008154809291906104259061095f565b91905055507fc2c021f5d73c63c481d336fbbafec58f694fc45095f00b02d2deb8cca59afe0760015460405161045b9190610720565b60405180910390a1565b60008054906101000a900473ffffffffffffffffffffffffffffffffffffffff1681565b60036020528160005260406000206020528060005260406000206000915091509054906101000a900460ff1681565b60026020528060005260406000206000915090505481565b60015481565b60006003600084815260200190815260200160002060008373ffffffffffffffffffffffffffffffffffffffff1673ffffffffffffffffffffffffffffffffffffffff16815260200190815260200160002060009054906101000a900460ff16905092915050565b600060026000838152602001908152602001600020549050919050565b600080fd5b6000819050919050565b61057381610560565b811461057e57600080fd5b50565b6000813590506105908161056a565b92915050565b6000602082840312156105ac576105ab61055b565b5b60006105ba84828501610581565b91505092915050565b600073ffffffffffffffffffffffffffffffffffffffff82169050919050565b6000819050919050565b60006106086106036105fe846105c3565b6105e3565b6105c3565b9050919050565b600061061a826105ed565b9050919050565b600061062c8261060f565b9050919050565b61063c81610621565b82525050565b60006020820190506106576000830184610633565b92915050565b6000610668826105c3565b9050919050565b6106788161065d565b811461068357600080fd5b50565b6000813590506106958161066f565b92915050565b600080604083850312156106b2576106b161055b565b5b60006106c085828601610581565b92505060206106d185828601610686565b9150509250929050565b60008115159050919050565b6106f0816106db565b82525050565b600060208201905061070b60008301846106e7565b92915050565b61071a81610560565b82525050565b60006020820190506107356000830184610711565b92915050565b600082825260208201905092915050565b7f50726f706f73616c20646f6573206e6f74206578697374000000000000000000600082015250565b600061078260178361073b565b915061078d8261074c565b602082019050919050565b600060208201905081810360008301526107b181610775565b9050919050565b6107c18161065d565b82525050565b60006020820190506107dc60008301846107b8565b92915050565b6000815190506107f18161056a565b92915050565b60006020828403121561080d5761080c61055b565b5b600061081b848285016107e2565b91505092915050565b7f4e6f742068756d616e2076657269666965640000000000000000000000000000600082015250565b600061085a60128361073b565b915061086582610824565b602082019050919050565b600060208201905081810360008301526108898161084d565b9050919050565b7f416c726561647920766f74656400000000000000000000000000000000000000600082015250565b60006108c6600d8361073b565b91506108d182610890565b602082019050919050565b600060208201905081810360008301526108f5816108b9565b9050919050565b7f4e487b7100000000000000000000000000000000000000000000000000000000600052601160045260246000fd5b600061093682610560565b915061094183610560565b9250828201905080821115610959576109586108fc565b5b92915050565b600061096a82610560565b91507fffffffffffffffffffffffffffffffffffffffffffffffffffffffffffffffff820361099c5761099b6108fc565b5b60018201905091905056fea2646970667358221220ee0c30719e75359132dabb71bcb3c5928bd495fc439cfc7a9691c1f5f0d7733264736f6c63430008140033",
  "linkReferences": {},
  "deployedLinkReferences": {}
}