{
  "_format": "hh-sol-artifact-1",
  "contractName": "HumanityNFT",
  "sourceName": "contracts/HumanityNFT.sol",
  "abi": [
    {
      "inputs": [],
      "stateMutability": "nonpayable",
      "type": "constructor"
    },
    {
      "inputs": [
        {
          "internalType": "address",
          "name": "sender",
          "type": "address"
        },
        {
          "internalType": "uint256",
          "name": "tokenId",
          "type": "uint256"
        },
        {
          "internalType": "address",
          "name": "owner",
          "type": "address"
        }
      ],
      "name": "ERC721IncorrectOwner",
      "type": "error"
    },
    {
      "inputs": [
        {
          "internalType": "address",
          "name": "operator",
          "type": "address"
        },
        {
          "internalType": "uint256",
          "name": "tokenId",
          "type": "uint256"
        }
      ],
      "name": "ERC721InsufficientApproval",
      "type": "error"
    },
    {
      "inputs": [
        {
          "internalType": "address",
          "name": "approver",
          "type": "address"
        }
      ],
      "name": "ERC721InvalidApprover",
      "type": "error"
    },
    {
      "inputs": [
        {
          "internalType": "address",
          "name": "operator",
          "type": "address"
        }
      ],
      "name": "ERC721InvalidOperator",
      "type": "error"
    },
    {
      "inputs": [
        {
          "internalType": "address",
          "name": "owner",
          "type": "address"
        }
      ],
      "name": "ERC721InvalidOwner",
      "type": "error"
    },
    {
      "inputs": [
        {
          "internalType": "address",
          "name": "receiver",
          "type": "address"
        }
      ],
      "name": "ERC721InvalidReceiver",
      "type": "error"
    },
    {
      "inputs": [
        {
          "internalType": "address",
          "name": "sender",
          "type": "address"
        }
      ],
      "name": "ERC721InvalidSender",
      "type": "error"
    },
    {
      "inputs": [
        {
          "internalType": "uint256",
          "name": "tokenId",
          "type": "uint256"
        }
      ],
      "name": "ERC721NonexistentToken",
      "type": "error"
    },
    {
      "inputs": [
        {
          "internalType": "address",
          "name": "owner",
          "type": "address"
        }
      ],
      "name": "OwnableInvalidOwner",
      "type": "error"
    },
    {
      "inputs": [
        {
          "internalType": "address",
          "name": "account",
          "type": "address"
        }
      ],
      "name": "OwnableUnauthorizedAccount",
      "type": "error"
    },
    {
      "anonymous": false,
      "inputs": [
        {
          "indexed": true,
          "internalType": "address",
          "name": "owner",
          "type": "address"
        },
        {
          "indexed": true,
          "internalType": "address",
          "name": "approved",
          "type": "address"
        },
        {
          "indexed": true,
          "internalType": "uint256",
          "name": "tokenId",
          "type": "uint256"
        }
      ],
      "name": "Approval",
      "type": "event"
    },
    {
      "anonymous": false,
      "inputs": [
        {
          "indexed": true,
          "internalType": "address",
          "name": "owner",
          "type": "address"
        },
        {
          "indexed": true,
          "internalType": "address",
          "name": "operator",
          "type": "address"
        },
        {
          "indexed": false,
          "internalType": "bool",
          "name": "approved",
          "type": "bool"
        }
      ],
      "name": "ApprovalForAll",
      "type": "event"
    },
    {
      "anonymous": false,
      "inputs": [
        {
          "indexed": false,
          "internalType": "uint256",
          "name": "_fromTokenId",
          "type": "uint256"
        },
        {
          "indexed": false,
          "internalType": "uint256",
          "name": "_toTokenId",
          "type": "uint256"
        }
      ],
      "name": "BatchMetadataUpdate",
      "type": "event"
    },
    {
      "anonymous": false,
      "inputs": [
        {
          "indexed": false,
          "internalType": "uint256",
          "name": "_tokenId",
          "type": "uint256"
        }
      ],
      "name": "MetadataUpdate",
      "type": "event"
    },
    {
      "anonymous": false,
      "inputs": [
        {
          "indexed": true,
          "internalType": "address",
          "name": "previousOwner",
          "type": "address"
        },
        {
          "indexed": true,
          "internalType": "address",
          "name": "newOwner",
          "type": "address"
        }
      ],
      "name": "OwnershipTransferred",
      "type": "event"
    },
    {
      "anonymous": false,
      "inputs": [
        {
          "indexed": true,
          "internalType": "address",
          "name": "from",
          "type": "address"
        },
        {
          "indexed": true,
          "internalType": "address",
          "name": "to",
          "type": "address"
        },
        {
          "indexed": true,
          "internalType": "uint256",
          "name": "tokenId",
          "type": "uint256"
        }
      ],
      "name": "Transfer",
      "type": "event"
    },
    {
      "inputs": [
        {
          "internalType": "address",
          "name": "to",
          "type": "address"
        },
        {
          "internalType": "uint256",
          "name": "tokenId",
          "type": "uint256"
        }
      ],
      "name": "approve",
      "outputs": [],
      "stateMutability": "nonpayable",
      "type": "function"
    },
    {
      "inputs": [
        {
          "internalType": "address",
          "name": "owner",
          "type": "address"
        }
      ],
      "name": "balanceOf",
      "outputs": [
        {
          "internalType": "uint256",
          "name": "",
          "type": "uint256"
        }
      ],
      "stateMutability": "view",
      "type": "function"
    },
    {
      "inputs": [
        {
          "internalType": "uint256",
          "name": "tokenId",
          "type": "uint256"
        }
      ],
      "name": "bioHashOf",
      "outputs": [
        {
          "internalType": "bytes32",
          "name": "",
          "type": "bytes32"
        }
      ],
      "stateMutability": "view",
      "type": "function"
    },
    {
      "inputs": [
        {
          "internalType": "uint256",
          "name": "tokenId",
          "type": "uint256"
        }
      ],
      "name": "getApproved",
      "outputs": [
        {
          "internalType": "address",
          "name": "",
          "type": "address"
        }
      ],
      "stateMutability": "view",
      "type": "function"
    },
    {
      "inputs": [
        {
          "internalType": "address",
          "name": "owner",
          "type": "address"
        },
        {
          "internalType": "address",
          "name": "operator",
          "type": "address"
        }
      ],
      "name": "isApprovedForAll",
      "outputs": [
        {
          "internalType": "bool",
          "name": "",
          "type": "bool"
        }
      ],
      "stateMutability": "view",
      "type": "function"
    },
    {
      "inputs": [
        {
          "internalType": "address",
          "name": "user",
          "type": "address"
        },
        {
          "internalType": "bytes32",
          "name": "bioHash",
          "type": "bytes32"
        }
      ],
      "name": "mint",
      "outputs": [],
      "stateMutability": "nonpayable",
      "type": "function"
    },
    {
      "inputs": [],
      "name": "name",
      "outputs": [
        {
          "internalType": "string",
          "name": "",
          "type": "string"
        }
      ],
      "stateMutability": "view",
      "type": "function"
    },
    {
      "inputs": [],
      "name": "owner",
      "outputs": [
        {
          "internalType": "address",
          "name": "",
          "type": "address"
        }
      ],
      "stateMutability": "view",
      "type": "function"
    },
    {
      "inputs": [
        {
          "internalType": "uint256",
          "name": "tokenId",
          "type": "uint256"
        }
      ],
      "name": "ownerOf",
      "outputs": [
        {
          "internalType": "address",
          "name": "",
          "type": "address"
        }
      ],
      "stateMutability": "view",
      "type": "function"
    },
    {
      "inputs": [],
      "name": "renounceOwnership",
      "outputs": [],
      "stateMutability": "nonpayable",
      "type": "function"
    },
    {
      "inputs": [
        {
          "internalType": "address",
          "name": "from",
          "type": "address"
        },
        {
          "internalType": "address",
          "name": "to",
          "type": "address"
        },
        {
          "internalType": "uint256",
          "name": "tokenId",
          "type": "uint256"
        }
      ],
      "name": "safeTransferFrom",
      "outputs": [],
      "stateMutability": "nonpayable",
      "type": "function"
    },
    {
      "inputs": [
        {
          "internalType": "address",
          "name": "from",
          "type": "address"
        },
        {
          "internalType": "address",
          "name": "to",
          "type": "address"
        },
        {
          "internalType": "uint256",
          "name": "tokenId",
          "type": "uint256"
        },
        {
          "internalType": "bytes",
          "name": "data",
          "type": "bytes"
        }
      ],
      "name": "safeTransferFrom",
      "outputs": [],
      "stateMutability": "nonpayable",
      "type": "function"
    },
    {
      "inputs": [
        {
          "internalType": "address",
          "name": "operator",
          "type": "address"
        },
        {
          "internalType": "bool",
          "name": "approved",
          "type": "bool"
        }
      ],
      "name": "setApprovalForAll",
      "outputs": [],
      "stateMutability": "nonpayable",
      "type": "function"
    },
    {
      "inputs": [
        {
          "internalType": "bytes4",
          "name": "interfaceId",
          "type": "bytes4"
        }
      ],
      "name": "supportsInterface",
      "outputs": [
        {
          "internalType": "bool",
          "name": "",
          "type": "bool"
        }
      ],
      "stateMutability": "view",
      "type": "function"
    },
    {
      "inputs": [],
      "name": "symbol",
      "outputs": [
        {
          "internalType": "string",
          "name": "",
          "type": "string"
        }
      ],
      "stateMutability": "view",
      "type": "function"
    },
    {
      "inputs": [
        {
          "internalType": "uint256",
          "name": "tokenId",
          "type": "uint256"
        }
      ],
      "name": "tokenURI",
      "outputs": [
        {
          "internalType": "string",
          "name": "",
          "type": "string"
        }
      ],
      "stateMutability": "view",
      "type": "function"
    },
    {
      "inputs": [
        {
          "internalType": "address",
          "name": "from",
          "type": "address"
        },
        {
          "internalType": "address",
          "name": "to",
          "type": "address"
        },
        {
          "internalType": "uint256",
          "name": "tokenId",
          "type": "uint256"
        }
      ],
      "name": "transferFrom",
      "outputs": [],
      "stateMutability": "nonpayable",
      "type": "function"
    },
    {
      "inputs": [
        {
          "internalType": "address",
          "name": "newOwner",
          "type": "address"
        }
      ],
      "name": "transferOwnership",
      "outputs": [],
      "stateMutability": "nonpayable",
      "type": "function"
    }
  ],
  "bytecode": "0x60806040523480156200001157600080fd5b50336040518060400160405280600b81526020017f48756d616e6974794e46540000000000000000000000000000000000000000008152506040518060400160405280600581526020017f48554d414e000000000000000000000000000000000000000000000000000000815250816000908162000090919062000472565b508060019081620000a2919062000472565b505050600073ffffffffffffffffffffffffffffffffffffffff168173ffffffffffffffffffffffffffffffffffffffff16036200011a5760006040517f1e4fbdf70000000000000000000000000000000000000000000000000000000081526004016200011191906200059e565b60405180910390fd5b6200012b816200013260201b60201c565b50620005bb565b6000600760009054906101000a900473ffffffffffffffffffffffffffffffffffffffff16905081600760006101000a81548173ffffffffffffffffffffffffffffffffffffffff021916908373ffffffffffffffffffffffffffffffffffffffff1602179055508173ffffffffffffffffffffffffffffffffffffffff168173ffffffffffffffffffffffffffffffffffffffff167f8be0079c531659141344cd1fd0a4f28419497f9722a3daafe3b4186f6b6457e060405160405180910390a35050565b600081519050919050565b7f4e487b7100000000000000000000000000000000000000000000000000000000600052604160045260246000fd5b7f4e487b7100000000000000000000000000000000000000000000000000000000600052602260045260246000fd5b600060028204905060018216806200027a57607f821691505b60208210810362000290576200028f62000232565b5b50919050565b60008190508160005260206000209050919050565b60006020601f8301049050919050565b600082821b905092915050565b600060088302620002fa7fffffffffffffffffffffffffffffffffffffffffffffffffffffffffffffffff82620002bb565b620003068683620002bb565b95508019841693508086168417925050509392505050565b6000819050919050565b6000819050919050565b6000620003536200034d62000347846200031e565b62000328565b6200031e565b9050919050565b6000819050919050565b6200036f8362000332565b620003876200037e826200035a565b848454620002c8565b825550505050565b600090565b6200039e6200038f565b620003ab81848462000364565b505050565b5b81811015620003d357620003c760008262000394565b600181019050620003b1565b5050565b601f8211156200042257620003ec8162000296565b620003f784620002ab565b8101602085101562000407578190505b6200041f6200041685620002ab565b830182620003b0565b50505b505050565b600082821c905092915050565b6000620004476000198460080262000427565b1980831691505092915050565b600062000462838362000434565b9150826002028217905092915050565b6200047d82620001f8565b67ffffffffffffffff81111562000499576200049862000203565b5b620004a5825462000261565b620004b2828285620003d7565b600060209050601f831160018114620004ea5760008415620004d5578287015190505b620004e1858262000454565b86555062000551565b601f198416620004fa8662000296565b60005b828110156200052457848901518255600182019150602085019450602081019050620004fd565b8683101562000544578489015162000540601f89168262000434565b8355505b6001600288020188555050505b505050505050565b600073ffffffffffffffffffffffffffffffffffffffff82169050919050565b6000620005868262000559565b9050919050565b620005988162000579565b82525050565b6000602082019050620005b560008301846200058d565b92915050565b6124cc80620005cb6000396000f3fe608060405234801561001057600080fd5b50600436106101165760003560e01c806370a08231116100a2578063a22cb46511610071578063a22cb465146102df578063b88d4fde146102fb578063c87b56dd14610317578063e985e9c514610347578063f2fde38b1461037757610116565b806370a0823114610269578063715018a6146102995780638da5cb5b146102a357806395d89b41146102c157610116565b806323b872dd116100e957806323b872dd146101b55780632cfd3005146101d157806342842e0e146101ed57806360065615146102095780636352211e1461023957610116565b806301ffc9a71461011b57806306fdde031461014b578063081812fc14610169578063095ea7b314610199575b600080fd5b61013560048036038101906101309190611b93565b610393565b6040516101429190611bdb565b60405180910390f35b6101536103f4565b6040516101609190611c86565b60405180910390f35b610183600480360381019061017e9190611cde565b610486565b6040516101909190611d4c565b60405180910390f35b6101b360048036038101906101ae9190611d93565b6104a2565b005b6101cf60048036038101906101ca9190611dd3565b6104b8565b005b6101eb60048036038101906101e69190611e5c565b6105ba565b005b61020760048036038101906102029190611dd3565b610608565b005b610223600480360381019061021e9190611cde565b610628565b6040516102309190611eab565b60405180910390f35b610253600480360381019061024e9190611cde565b610645565b6040516102609190611d4c565b60405180910390f35b610283600480360381019061027e9190611ec6565b610657565b6040516102909190611f02565b60405180910390f35b6102a1610711565b005b6102ab610725565b6040516102b89190611d4c565b60405180910390f35b6102c961074f565b6040516102d69190611c86565b60405180910390f35b6102f960048036038101906102f49190611f49565b6107e1565b005b610315600480360381019061031091906120be565b6107f7565b005b610331600480360381019061032c9190611cde565b61081c565b60405161033e9190611c86565b60405180910390f35b610361600480360381019061035c9190612141565b61092f565b60405161036e9190611bdb565b60405180910390f35b610391600480360381019061038c9190611ec6565b6109c3565b005b6000634906490660e01b7bffffffffffffffffffffffffffffffffffffffffffffffffffffffff1916827bffffffffffffffffffffffffffffffffffffffffffffffffffffffff191614806103ed57506103ec82610a49565b5b9050919050565b606060008054610403906121b0565b80601f016020809104026020016040519081016040528092919081815260200182805461042f906121b0565b801561047c5780601f106104515761010080835404028352916020019161047c565b820191906000526020600020905b81548152906001019060200180831161045f57829003601f168201915b5050505050905090565b600061049182610b2b565b5061049b82610bb3565b9050919050565b6104b482826104af610bf0565b610bf8565b5050565b600073ffffffffffffffffffffffffffffffffffffffff168273ffffffffffffffffffffffffffffffffffffffff160361052a5760006040517f64a0ae920000000000000000000000000000000000000000000000000000000081526004016105219190611d4c565b60405180910390fd5b600061053e8383610539610bf0565b610c0a565b90508373ffffffffffffffffffffffffffffffffffffffff168173ffffffffffffffffffffffffffffffffffffffff16146105b4578382826040517f64283d7b0000000000000000000000000000000000000000000000000000000081526004016105ab939291906121e1565b60405180910390fd5b50505050565b6105c2610cd3565b600860008154809291906105d590612247565b9190505550600060085490506105eb8382610d5a565b816009600083815260200190815260200160002081905550505050565b610623838383604051806020016040528060008152506107f7565b505050565b600060096000838152602001908152602001600020549050919050565b600061065082610b2b565b9050919050565b60008073ffffffffffffffffffffffffffffffffffffffff168273ffffffffffffffffffffffffffffffffffffffff16036106ca5760006040517f89c62b640000000000000000000000000000000000000000000000000000000081526004016106c19190611d4c565b60405180910390fd5b600360008373ffffffffffffffffffffffffffffffffffffffff1673ffffffffffffffffffffffffffffffffffffffff168152602001908152602001600020549050919050565b610719610cd3565b6107236000610d78565b565b6000600760009054906101000a900473ffffffffffffffffffffffffffffffffffffffff16905090565b60606001805461075e906121b0565b80601f016020809104026020016040519081016040528092919081815260200182805461078a906121b0565b80156107d75780601f106107ac576101008083540402835291602001916107d7565b820191906000526020600020905b8154815290600101906020018083116107ba57829003601f168201915b5050505050905090565b6107f36107ec610bf0565b8383610e3e565b5050565b6108028484846104b8565b61081661080d610bf0565b85858585610fad565b50505050565b606061082782610b2b565b506000600660008481526020019081526020016000208054610848906121b0565b80601f0160208091040260200160405190810160405280929190818152602001828054610874906121b0565b80156108c15780601f10610896576101008083540402835291602001916108c1565b820191906000526020600020905b8154815290600101906020018083116108a457829003601f168201915b5050505050905060006108d261115e565b905060008151036108e757819250505061092a565b60008251111561091c5780826040516020016109049291906122cb565b6040516020818303038152906040529250505061092a565b61092584611175565b925050505b919050565b6000600560008473ffffffffffffffffffffffffffffffffffffffff1673ffffffffffffffffffffffffffffffffffffffff16815260200190815260200160002060008373ffffffffffffffffffffffffffffffffffffffff1673ffffffffffffffffffffffffffffffffffffffff16815260200190815260200160002060009054906101000a900460ff16905092915050565b6109cb610cd3565b600073ffffffffffffffffffffffffffffffffffffffff168173ffffffffffffffffffffffffffffffffffffffff1603610a3d5760006040517f1e4fbdf7000000000000000000000000000000000000000000000000000000008152600401610a349190611d4c565b60405180910390fd5b610a4681610d78565b50565b60007f80ac58cd000000000000000000000000000000000000000000000000000000007bffffffffffffffffffffffffffffffffffffffffffffffffffffffff1916827bffffffffffffffffffffffffffffffffffffffffffffffffffffffff19161480610b1457507f5b5e139f000000000000000000000000000000000000000000000000000000007bffffffffffffffffffffffffffffffffffffffffffffffffffffffff1916827bffffffffffffffffffffffffffffffffffffffffffffffffffffffff1916145b80610b245750610b23826111de565b5b9050919050565b600080610b3783611248565b9050600073ffffffffffffffffffffffffffffffffffffffff168173ffffffffffffffffffffffffffffffffffffffff1603610baa57826040517f7e273289000000000000000000000000000000000000000000000000000000008152600401610ba19190611f02565b60405180910390fd5b80915050919050565b60006004600083815260200190815260200160002060009054906101000a900473ffffffffffffffffffffffffffffffffffffffff169050919050565b600033905090565b610c058383836001611285565b505050565b600080610c1684611248565b9050600073ffffffffffffffffffffffffffffffffffffffff168173ffffffffffffffffffffffffffffffffffffffff161480610c7f5750600073ffffffffffffffffffffffffffffffffffffffff168573ffffffffffffffffffffffffffffffffffffffff16145b610cbe576040517f08c379a0000000000000000000000000000000000000000000000000000000008152600401610cb59061233b565b60405180910390fd5b610cc985858561144a565b9150509392505050565b610cdb610bf0565b73ffffffffffffffffffffffffffffffffffffffff16610cf9610725565b73ffffffffffffffffffffffffffffffffffffffff1614610d5857610d1c610bf0565b6040517f118cdaa7000000000000000000000000000000000000000000000000000000008152600401610d4f9190611d4c565b60405180910390fd5b565b610d74828260405180602001604052806000815250611664565b5050565b6000600760009054906101000a900473ffffffffffffffffffffffffffffffffffffffff16905081600760006101000a81548173ffffffffffffffffffffffffffffffffffffffff021916908373ffffffffffffffffffffffffffffffffffffffff1602179055508173ffffffffffffffffffffffffffffffffffffffff168173ffffffffffffffffffffffffffffffffffffffff167f8be0079c531659141344cd1fd0a4f28419497f9722a3daafe3b4186f6b6457e060405160405180910390a35050565b600073ffffffffffffffffffffffffffffffffffffffff168273ffffffffffffffffffffffffffffffffffffffff1603610eaf57816040517f5b08ba18000000000000000000000000000000000000000000000000000000008152600401610ea69190611d4c565b60405180910390fd5b80600560008573ffffffffffffffffffffffffffffffffffffffff1673ffffffffffffffffffffffffffffffffffffffff16815260200190815260200160002060008473ffffffffffffffffffffffffffffffffffffffff1673ffffffffffffffffffffffffffffffffffffffff16815260200190815260200160002060006101000a81548160ff0219169083151502179055508173ffffffffffffffffffffffffffffffffffffffff168373ffffffffffffffffffffffffffffffffffffffff167f17307eab39ab6107e8899845ad3d59bd9653f200f220920489ca2b5937696c3183604051610fa09190611bdb565b60405180910390a3505050565b60008373ffffffffffffffffffffffffffffffffffffffff163b1115611157578273ffffffffffffffffffffffffffffffffffffffff1663150b7a02868685856040518563ffffffff1660e01b815260040161100c94939291906123b0565b6020604051808303816000875af192505050801561104857506040513d601f19601f820116820180604052508101906110459190612411565b60015b6110cc573d8060008114611078576040519150601f19603f3d011682016040523d82523d6000602084013e61107d565b606091505b5060008151036110c457836040517f64a0ae920000000000000000000000000000000000000000000000000000000081526004016110bb9190611d4c565b60405180910390fd5b805160208201fd5b63150b7a0260e01b7bffffffffffffffffffffffffffffffffffffffffffffffffffffffff1916817bffffffffffffffffffffffffffffffffffffffffffffffffffffffff19161461115557836040517f64a0ae9200000000000000000000000000000000000000000000000000000000815260040161114c9190611d4c565b60405180910390fd5b505b5050505050565b606060405180602001604052806000815250905090565b606061118082610b2b565b50600061118b61115e565b905060008151116111ab57604051806020016040528060008152506111d6565b806111b584611688565b6040516020016111c69291906122cb565b6040516020818303038152906040525b915050919050565b60007f01ffc9a7000000000000000000000000000000000000000000000000000000007bffffffffffffffffffffffffffffffffffffffffffffffffffffffff1916827bffffffffffffffffffffffffffffffffffffffffffffffffffffffff1916149050919050565b60006002600083815260200190815260200160002060009054906101000a900473ffffffffffffffffffffffffffffffffffffffff169050919050565b80806112be5750600073ffffffffffffffffffffffffffffffffffffffff168273ffffffffffffffffffffffffffffffffffffffff1614155b156113f25760006112ce84610b2b565b9050600073ffffffffffffffffffffffffffffffffffffffff168373ffffffffffffffffffffffffffffffffffffffff161415801561133957508273ffffffffffffffffffffffffffffffffffffffff168173ffffffffffffffffffffffffffffffffffffffff1614155b801561134c575061134a818461092f565b155b1561138e57826040517fa9fbf51f0000000000000000000000000000000000000000000000000000000081526004016113859190611d4c565b60405180910390fd5b81156113f057838573ffffffffffffffffffffffffffffffffffffffff168273ffffffffffffffffffffffffffffffffffffffff167f8c5be1e5ebec7d5bd14f71427d1e84f3dd0314c0f7b2291e5b200ac8c7c3b92560405160405180910390a45b505b836004600085815260200190815260200160002060006101000a81548173ffffffffffffffffffffffffffffffffffffffff021916908373ffffffffffffffffffffffffffffffffffffffff16021790555050505050565b60008061145684611248565b9050600073ffffffffffffffffffffffffffffffffffffffff168373ffffffffffffffffffffffffffffffffffffffff161461149857611497818486611756565b5b600073ffffffffffffffffffffffffffffffffffffffff168173ffffffffffffffffffffffffffffffffffffffff1614611529576114da600085600080611285565b6001600360008373ffffffffffffffffffffffffffffffffffffffff1673ffffffffffffffffffffffffffffffffffffffff168152602001908152602001600020600082825403925050819055505b600073ffffffffffffffffffffffffffffffffffffffff168573ffffffffffffffffffffffffffffffffffffffff16146115ac576001600360008773ffffffffffffffffffffffffffffffffffffffff1673ffffffffffffffffffffffffffffffffffffffff168152602001908152602001600020600082825401925050819055505b846002600086815260200190815260200160002060006101000a81548173ffffffffffffffffffffffffffffffffffffffff021916908373ffffffffffffffffffffffffffffffffffffffff160217905550838573ffffffffffffffffffffffffffffffffffffffff168273ffffffffffffffffffffffffffffffffffffffff167fddf252ad1be2c89b69c2b068fc378daa952ba7f163c4a11628f55a4df523b3ef60405160405180910390a4809150509392505050565b61166e838361181a565b611683611679610bf0565b6000858585610fad565b505050565b60606000600161169784611913565b01905060008167ffffffffffffffff8111156116b6576116b5611f93565b5b6040519080825280601f01601f1916602001820160405280156116e85781602001600182028036833780820191505090505b509050600082602083010190505b60011561174b578080600190039150507f3031323334353637383961626364656600000000000000000000000000000000600a86061a8153600a858161173f5761173e61243e565b5b049450600085036116f6575b819350505050919050565b611761838383611a66565b61181557600073ffffffffffffffffffffffffffffffffffffffff168373ffffffffffffffffffffffffffffffffffffffff16036117d657806040517f7e2732890000000000000000000000000000000000000000000000000000000081526004016117cd9190611f02565b60405180910390fd5b81816040517f177e802f00000000000000000000000000000000000000000000000000000000815260040161180c92919061246d565b60405180910390fd5b505050565b600073ffffffffffffffffffffffffffffffffffffffff168273ffffffffffffffffffffffffffffffffffffffff160361188c5760006040517f64a0ae920000000000000000000000000000000000000000000000000000000081526004016118839190611d4c565b60405180910390fd5b600061189a83836000610c0a565b9050600073ffffffffffffffffffffffffffffffffffffffff168173ffffffffffffffffffffffffffffffffffffffff161461190e5760006040517f73c6ac6e0000000000000000000000000000000000000000000000000000000081526004016119059190611d4c565b60405180910390fd5b505050565b600080600090507a184f03e93ff9f4daa797ed6e38ed64bf6a1f0100000000000000008310611971577a184f03e93ff9f4daa797ed6e38ed64bf6a1f01000000000000000083816119675761196661243e565b5b0492506040810190505b6d04ee2d6d415b85acef810000000083106119ae576d04ee2d6d415b85acef810000000083816119a4576119a361243e565b5b0492506020810190505b662386f26fc1000083106119dd57662386f26fc1000083816119d3576119d261243e565b5b0492506010810190505b6305f5e1008310611a06576305f5e10083816119fc576119fb61243e565b5b0492506008810190505b6127108310611a2b576127108381611a2157611a2061243e565b5b0492506004810190505b60648310611a4e5760648381611a4457611a4361243e565b5b0492506002810190505b600a8310611a5d576001810190505b80915050919050565b60008073ffffffffffffffffffffffffffffffffffffffff168373ffffffffffffffffffffffffffffffffffffffff1614158015611b1e57508273ffffffffffffffffffffffffffffffffffffffff168473ffffffffffffffffffffffffffffffffffffffff161480611adf5750611ade848461092f565b5b80611b1d57508273ffffffffffffffffffffffffffffffffffffffff16611b0583610bb3565b73ffffffffffffffffffffffffffffffffffffffff16145b5b90509392505050565b6000604051905090565b600080fd5b600080fd5b60007fffffffff0000000000000000000000000000000000000000000000000000000082169050919050565b611b7081611b3b565b8114611b7b57600080fd5b50565b600081359050611b8d81611b67565b92915050565b600060208284031215611ba957611ba8611b31565b5b6000611bb784828501611b7e565b91505092915050565b60008115159050919050565b611bd581611bc0565b82525050565b6000602082019050611bf06000830184611bcc565b92915050565b600081519050919050565b600082825260208201905092915050565b60005b83811015611c30578082015181840152602081019050611c15565b60008484015250505050565b6000601f19601f8301169050919050565b6000611c5882611bf6565b611c628185611c01565b9350611c72818560208601611c12565b611c7b81611c3c565b840191505092915050565b60006020820190508181036000830152611ca08184611c4d565b905092915050565b6000819050919050565b611cbb81611ca8565b8114611cc657600080fd5b50565b600081359050611cd881611cb2565b92915050565b600060208284031215611cf457611cf3611b31565b5b6000611d0284828501611cc9565b91505092915050565b600073ffffffffffffffffffffffffffffffffffffffff82169050919050565b6000611d3682611d0b565b9050919050565b611d4681611d2b565b82525050565b6000602082019050611d616000830184611d3d565b92915050565b611d7081611d2b565b8114611d7b57600080fd5b50565b600081359050611d8d81611d67565b92915050565b60008060408385031215611daa57611da9611b31565b5b6000611db885828601611d7e565b9250506020611dc985828601611cc9565b9150509250929050565b600080600060608486031215611dec57611deb611b31565b5b6000611dfa86828701611d7e565b9350506020611e0b86828701611d7e565b9250506040611e1c86828701611cc9565b9150509250925092565b6000819050919050565b611e3981611e26565b8114611e4457600080fd5b50565b600081359050611e5681611e30565b92915050565b60008060408385031215611e7357611e72611b31565b5b6000611e8185828601611d7e565b9250506020611e9285828601611e47565b9150509250929050565b611ea581611e26565b82525050565b6000602082019050611ec06000830184611e9c565b92915050565b600060208284031215611edc57611edb611b31565b5b6000611eea84828501611d7e565b91505092915050565b611efc81611ca8565b82525050565b6000602082019050611f176000830184611ef3565b92915050565b611f2681611bc0565b8114611f3157600080fd5b50565b600081359050611f4381611f1d565b92915050565b60008060408385031215611f6057611f5f611b31565b5b6000611f6e85828601611d7e565b9250506020611f7f85828601611f34565b9150509250929050565b600080fd5b600080fd5b7f4e487b7100000000000000000000000000000000000000000000000000000000600052604160045260246000fd5b611fcb82611c3c565b810181811067ffffffffffffffff82111715611fea57611fe9611f93565b5b80604052505050565b6000611ffd611b27565b90506120098282611fc2565b919050565b600067ffffffffffffffff82111561202957612028611f93565b5b61203282611c3c565b9050602081019050919050565b82818337600083830152505050565b600061206161205c8461200e565b611ff3565b90508281526020810184848401111561207d5761207c611f8e565b5b61208884828561203f565b509392505050565b600082601f8301126120a5576120a4611f89565b5b81356120b584826020860161204e565b91505092915050565b600080600080608085870312156120d8576120d7611b31565b5b60006120e687828801611d7e565b94505060206120f787828801611d7e565b935050604061210887828801611cc9565b925050606085013567ffffffffffffffff81111561212957612128611b36565b5b61213587828801612090565b91505092959194509250565b6000806040838503121561215857612157611b31565b5b600061216685828601611d7e565b925050602061217785828601611d7e565b9150509250929050565b7f4e487b7100000000000000000000000000000000000000000000000000000000600052602260045260246000fd5b600060028204905060018216806121c857607f821691505b6020821081036121db576121da612181565b5b50919050565b60006060820190506121f66000830186611d3d565b6122036020830185611ef3565b6122106040830184611d3d565b949350505050565b7f4e487b7100000000000000000000000000000000000000000000000000000000600052601160045260246000fd5b600061225282611ca8565b91507fffffffffffffffffffffffffffffffffffffffffffffffffffffffffffffffff820361228457612283612218565b5b600182019050919050565b600081905092915050565b60006122a582611bf6565b6122af818561228f565b93506122bf818560208601611c12565b80840191505092915050565b60006122d7828561229a565b91506122e3828461229a565b91508190509392505050565b7f536f756c626f756e643a205472616e736665722064697361626c656400000000600082015250565b6000612325601c83611c01565b9150612330826122ef565b602082019050919050565b6000602082019050818103600083015261235481612318565b9050919050565b600081519050919050565b600082825260208201905092915050565b60006123828261235b565b61238c8185612366565b935061239c818560208601611c12565b6123a581611c3c565b840191505092915050565b60006080820190506123c56000830187611d3d565b6123d26020830186611d3d565b6123df6040830185611ef3565b81810360608301526123f18184612377565b905095945050505050565b60008151905061240b81611b67565b92915050565b60006020828403121561242757612426611b31565b5b6000612435848285016123fc565b91505092915050565b7f4e487b7100000000000000000000000000000000000000000000000000000000600052601260045260246000fd5b60006040820190506124826000830185611d3d565b61248f6020830184611ef3565b939250505056fea2646970667358221220ad495bdd3591810c4c8cd68ef8d899d04f676a14bdc6ab807d5765a5275b9fd064736f6c63430008140033",
  "linkReferences": {},
  "deployedLinkReferences": {}
}